:100000000C9478000C943B040C9414040C94A00001
:100010000C94A0000C94A0000C94A0000C94A000E0
:100020000C94A0000C94A0000C94A0000C94A000D0
:100030000C94A0000C94A0000C94A0000C94A000C0
:100040000C94CA030C94A0000C9498030C947203B3
:100050000C94A0000C94A0000C94A0000C94A000A0
:100060000C94A0000C94A0000000000024002700C5
:100070002A0000000000250028002B0004040404CE
:100080000404040402020202020203030303030342
:10009000010204081020408001020408102001021F
:1000A00004081020000000080002010000030407FB
:1000B00000000000000000005E01011F01030301B9
:1000C000008A02010A010202010064001E47040BBB
:1000D0000906007C0101060103030100F401060E7C
:1000E0000102020100C201170101020201016204C2
:1000F00011241FBECFEFD4E0DEBFCDBF11E0A0E0E2
:10010000B1E0EAE2FDE002C005900D92A836B10729
:10011000D9F722E0A8E6B1E001C01D92A93BB207E1
:10012000E1F710E0C8E7D0E004C02197FE010E948B
:100130007F06C737D107C9F70E94B9040C9493060C
:100140000C940000CF92DF92EF92FF920F931F93D7
:10015000CF93DF936C017A018B01C0E0D0E0CE1524
:10016000DF0589F0D8016D918D01D601ED91FC91EB
:100170000190F081E02DC6010995892B11F47E01D3
:1001800002C02196ECCFC701DF91CF911F910F9153
:10019000FF90EF90DF90CF900895FC01918D828DBC
:1001A000981761F0828DDF01A80FB11D5D968C91CB
:1001B000928D9F5F9F73928F90E008958FEF9FEFD6
:1001C0000895FC01918D828D981731F0828DE80F92
:1001D000F11D858D90E008958FEF9FEF0895FC014C
:1001E000918D228D892F90E0805C9F4F821B910919
:1001F0008F739927089589E092E00E94EF0021E033
:10020000892B09F420E0822F0895FC01848DDF0101
:10021000A80FB11DA35ABF4F2C91848D90E0019679
:100220008F739927848FA689B7892C93A089B18968
:100230008C9180648C93938D848D981306C0028872
:10024000F389E02D80818F7D80830895EF92FF9266
:100250000F931F93CF93DF93EC0181E0888F9B8DE9
:100260008C8D981305C0E889F989808185FD24C0AB
:10027000F62E0B8D10E00F5F1F4F0F731127E02E2E
:100280008C8DE8120CC00FB607FCFACFE889F9890B
:10029000808185FFF5CFCE010E940501F1CF8B8DC6
:1002A000FE01E80FF11DE35AFF4FF0820B8FEA8940
:1002B000FB898081806207C0EE89FF896083E889BD
:1002C000F98980818064808381E090E0DF91CF9123
:1002D0001F910F91FF90EF900895CF93DF93EC0162
:1002E000888D8823C9F0EA89FB89808185FD05C056
:1002F000A889B9898C9186FD0FC00FB607FCF5CF90
:10030000808185FFF2CFA889B9898C9185FFEDCFD7
:10031000CE010E940501E7CFDF91CF91089580E0E3
:1003200090E0892B29F00E94FB0081110C940000C1
:10033000089508952F923F924F925F926F927F920D
:100340008F929F92AF92BF92CF92DF92EF92FF92E5
:100350000F931F93CF93DF93CDB7DEB765970FB69B
:10036000F894DEBF0FBECDBF9FB7F8948090F80120
:100370009090F901A090FA01B090FB0186B5A89B7E
:1003800007C08F3F29F02FEF821A920AA20AB20A01
:100390009FBFBA2CA92C982C8824880E911CA11CD4
:1003A000B11C32E0880C991CAA1CBB1C3A95D1F7F1
:1003B0008091F4019091F5012401481A590A3DEC0D
:1003C000431630E1530608F4F6C080916E01909117
:1003D0006F01A201481B590BCA0157FF03C0919539
:1003E00081959109883C91050CF0E1C080916C01E8
:1003F00090916D01019690936D0180936C0102972D
:1004000009F0D5C098EB692E90E0792E01E010E05C
:1004100020906A0130906B013B862A8649E050E0CB
:10042000B301CE0101960E948A068C816B81681708
:1004300008F4682F70E080916E0190916F010E9426
:1004400049069B014091040150910501649FC00140
:10045000659F900D749F900D112464E670E00E94DA
:1004600049068985811103C0A1E0B0E002C0A2E085
:10047000B0E08D81829FA001839F500D11245D8784
:100480004C878E81829F1001839F300C11243F8600
:100490002E868F81829FA001839F500D1124598B3E
:1004A000488B8885829F1001839F300C11243B8AE2
:1004B0002A8AFD01EE0FFF1FE259FE4FC12CD12CFD
:1004C00076014A855B85415051095D8B4C8B8C8947
:1004D0009D89A817B90708F040C0CC0CDD1CEE1CA4
:1004E000FF1C80819181AC012C843D844219530909
:1004F00057FF03C05195419551094617570770F4AE
:10050000428153812E843F844219530957FF03C00F
:1005100051954195510946175707E0F028883988C9
:100520008219930997FF03C09195819591098617C8
:10053000970780F5828193814A895B89841B950B9B
:1005400097FF03C09195819591098617970710F53C
:100550006894C0F812963496BACF4A855B854830C5
:100560005105C0F0C092A602D092A702E092A80264
:10057000F092A9021C013694279430920402209232
:1005800003023093690120936801109302020093E3
:10059000010209C00F5F1F4F59E0650E711C073043
:1005A000110509F035CF10926D0110926C01109277
:1005B0006B0110926A0180916A0190916B01833402
:1005C000910540F010926B0110926A0110926D013A
:1005D00010926C0180916A0190916B019C012F5FD8
:1005E0003F4F30936B0120936A01880F991FFC01E4
:1005F000E259FE4F518240828092F4019092F501BF
:10060000A092F601B092F70165960FB6F894DEBF9E
:100610000FBECDBFDF91CF911F910F91FF90EF9053
:10062000DF90CF90BF90AF909F908F907F906F9012
:100630005F904F903F902F900895009769F0FC01D4
:1006400001900020E9F73197AF01481B590BBC011D
:1006500089E092E00C94A20080E090E008958F92EF
:100660009F92AF92BF920F931F93CF93DF93CDB71B
:10067000DEB7A1970FB6F894DEBF0FBECDBF19A2AB
:10068000423008F44AE08E010F5D1F4F842E912CFA
:10069000A12CB12CA50194010E945D06E62FB901A1
:1006A000CA0101501109EA3014F4E05D01C0E95CAF
:1006B000D801EC93232B242B252B61F7C8010E9432
:1006C0001D03A1960FB6F894DEBF0FBECDBFDF911C
:1006D000CF911F910F91BF90AF909F908F900895F1
:1006E0000E9485061F920F920FB60F9211242F932E
:1006F0003F934F935F936F937F938F939F93AF93AA
:10070000BF93EF93FF9389E092E00E940501FF9170
:10071000EF91BF91AF919F918F917F916F915F9179
:100720004F913F912F910F900FBE0F901F901895F2
:100730001F920F920FB60F9211242F938F939F93B6
:10074000EF93FF93E0911902F0911A028081E091FA
:100750001F02F091200282FD12C09081809122023E
:100760008F5F8F7320912302821751F0E091220254
:10077000F0E0E75FFD4F958F8093220201C08081FA
:10078000FF91EF919F918F912F910F900FBE0F903E
:100790001F9018951F920F920FB60F9211242F934E
:1007A0003F938F939F93AF93BF938091FD0190915F
:1007B000FE01A091FF01B09100023091FC0123E005
:1007C000230F2D3720F40196A11DB11D05C026E889
:1007D000230F0296A11DB11D2093FC018093FD0102
:1007E0009093FE01A093FF01B09300028091F80165
:1007F0009091F901A091FA01B091FB010196A11D20
:10080000B11D8093F8019093F901A093FA01B09380
:10081000FB01BF91AF919F918F913F912F910F90CD
:100820000FBE0F901F9018951F920F920FB60F9248
:1008300011242F933F934F935F936F937F938F93E5
:100840009F93AF93BF93EF93FF93E0910201F091D9
:1008500003010995FF91EF91BF91AF919F918F9106
:100860007F916F915F914F913F912F910F900FBEAC
:100870000F901F9018951F920F920FB60F92112490
:100880002F933F934F935F936F937F938F939F9398
:10089000AF93BF93EF93FF93E0910001F0910101BB
:1008A0000995FF91EF91BF91AF919F918F917F91AA
:1008B0006F915F914F913F912F910F900FBE0F90CD
:1008C0001F9018950F931F93CF93DF93E9E0F2E009
:1008D0001382128288EE93E0A0E0B0E084839583D7
:1008E000A683B7838AE091E09183808385EC90E0D2
:1008F0009587848784EC90E09787868780EC90E0EA
:10090000918B808B81EC90E0938B828B82EC90E0DA
:10091000958B848B86EC90E0978B868B118E128E54
:10092000138E148ECAEAD2E00FEF1FEF1B830A83E7
:100930008AE090E09D838C8349E050E068EB70E0B2
:1009400080EB92E00E948A06198308838CE390E092
:1009500090930501809304011092A6021092A702C1
:100960001092A8021092A902DF91CF911F910F91CE
:100970000895789484B5826084BD84B5816084BD17
:1009800085B5826085BD85B5816085BD80916E002D
:10099000816080936E00109281008091810082605E
:1009A000809381008091810081608093810080919B
:1009B00080008160809380008091B100846080938A
:1009C000B1008091B00081608093B00080917A0086
:1009D000846080937A0080917A00826080937A00AC
:1009E00080917A00816080937A0080917A0080689B
:1009F00080937A001092C100E2E9F0E02491EEE7E2
:100A0000F0E084918823C1F090E0880F991FFC01E9
:100A1000E859FF4FC591D491FC01EE58FF4FA591C5
:100A2000B4919FB7F8948881E22FE0958E23888354
:100A30008C91E823EC939FBF43E950E0FA01649165
:100A40008FE790E0FC012491222399F030E0220FFF
:100A5000331FF901E859FF4FA591B4912E583F4F2C
:100A6000F901C591D4912FB7F8943C91632B6C9305
:100A70002FBFE7EAF0E02491FA014491FC01949140
:100A80009923B9F1222339F1233091F038F4213040
:100A9000A9F0223001F584B58F7D12C0273091F086
:100AA0002830A1F02430B9F4809180008F7D03C0FC
:100AB000809180008F77809380000DC084B58F7700
:100AC00084BD09C08091B0008F7703C08091B000D1
:100AD0008F7D8093B000E92FF0E0EE0FFF1FEE58FE
:100AE000FF4FA591B4918FB7F8949C91492B4C93EB
:100AF0008FBFE0911902F0911A0282E08083E091A9
:100B00001502F09116021082E0911702F09118027E
:100B10008FEC808310922102E0911D02F0911E0261
:100B200086E08083E0911B02F0911C02808180614D
:100B30008083E0911B02F0911C0280818860808399
:100B4000E0911B02F0911C02808180688083E0911B
:100B50001B02F0911C0280818F7D80831092AB027A
:100B60001092AA021092A6021092A7021092A80256
:100B70001092A90210920402109203028AE991E0F5
:100B80009093010180930001809169008C7F8160C6
:100B900080936900E89A86E191E00E941D0389E252
:100BA00091E00E941D038091A6029091A702A0915E
:100BB000A802B091A9020097A105B10509F447C0A8
:100BC000892B19F48CE291E02FC08DE391E00E9413
:100BD0001D036091A6027091A7028091A8029091D6
:100BE000A9024AE00E942F0387E491E00E941D03BE
:100BF000609103027091040280E090E04AE00E945C
:100C00002F038BE491E00E941D0380E591E00E9498
:100C10001D03609101027091020280E090E04AE0C1
:100C20000E942F0389E291E00E941D031092A60208
:100C30001092A7021092A8021092A9021092050227
:100C40001092060210920702109208021FC08091B3
:100C5000050290910602A0910702B0910802019648
:100C6000A11DB11D8093050290930602A093070277
:100C7000B0930802892B8A2B8B2B41F48BE591E0F2
:100C80000E941D0389E291E00E941D030E948F01D2
:100C90008ACFAA1BBB1B51E107C0AA1FBB1FA61707
:100CA000B70710F0A61BB70B881F991F5A95A9F715
:100CB00080959095BC01CD010895A1E21A2EAA1B42
:100CC000BB1BFD010DC0AA1FBB1FEE1FFF1FA217FC
:100CD000B307E407F50720F0A21BB30BE40BF50BF9
:100CE000661F771F881F991F1A9469F76095709582
:100CF000809590959B01AC01BD01CF010895EE0F49
:100D0000FF1F0590F491E02D099481E090E0F894A4
:100D10000C949306FB01DC0102C005900D9241503A
:0A0D20005040D8F70895F894FFCF73
:100D2A00990199013C00000000002601A200EF0091
:100D3A00CD00E1006D0172665F736E696666657269
:100D4A002073746172746564000D0A00556E6B6ECF
:100D5A006F776E20656E636F64696E6700526563B4
:100D6A0065697665642000202F200062697420007E
:100D7A0050726F746F636F6C3A20006E6F206163FC
:080D8A007469766974790000B8
:103800000C94341C0C94511C0C94511C0C94511CA1
:103810000C94511C0C94511C0C94511C0C94511C74
:103820000C94511C0C94511C0C94511C0C94511C64
:103830000C94511C0C94511C0C94511C0C94511C54
:103840000C94511C0C94511C0C94511C0C94511C44
:103850000C94511C0C94511C0C94511C0C94511C34
:103860000C94511C0C94511C11241FBECFEFD4E0BA
:10387000DEBFCDBF11E0A0E0B1E0E4EAFFE302C0AB
:1038800005900D92A230B107D9F712E0A2E0B1E0A5
:1038900001C01D92AD30B107E1F70E94361D0C94B6
:1038A000D01F0C94001C982F9595959595959595FE
:1038B000905D8F708A307CF0282F295A8091C0004B
:1038C00085FFFCCF9093C6008091C00085FFFCCFA0
:1038D0002093C6000895282F205DF0CF982F809167
:1038E000C00085FFFCCF9093C6000895EF92FF9231
:1038F0000F931F93EE24FF2487018091C00087FD62
:1039000017C00894E11CF11C011D111D81E4E8168B
:1039100082E4F8068FE0080780E0180770F3E09172
:103920000401F091050109958091C00087FFE9CF5E
:103930008091C6001F910F91FF90EF9008950E9413
:10394000761C982F8091C00085FFFCCF9093C60015
:1039500091362CF490330CF09053892F089597559D
:10396000892F08951F930E949F1C182F0E949F1C4F
:103970001295107F810F1F910895882351F0982F81
:1039800091508091C00087FFFCCF8091C6009923A1
:10399000B9F708951F93182F0E94761C803249F0C2
:1039A000809103018F5F809303018530C1F01F91E7
:1039B00008958091C00085FFFCCF84E18093C6000C
:1039C0008091C00085FFFCCF1093C6008091C0009D
:1039D00085FFFCCF80E18093C6001F910895E091A0
:1039E0000401F091050109951F9108950E94761C2C
:1039F000803241F0809103018F5F80930301853015
:103A000081F008958091C00085FFFCCF84E1809310
:103A1000C6008091C00085FFFCCF80E18093C60086
:103A20000895E0910401F09105010995089510921F
:103A30000A028823D1F090E040E951E02D9A28EE67
:103A400033E0FA013197F1F721503040D1F72D984A
:103A500028EE33E0FA013197F1F721503040D1F7E9
:103A60009F5F981758F380930A0208953F924F92F0
:103A70005F926F927F928F929F92AF92BF92CF92FE
:103A8000DF92EF92FF920F931F93CF93DF9300008B
:103A900083E38093C4001092C50088E18093C10045
:103AA00086E08093C2005098589A259A81E00E943F
:103AB000171D44E1F42E3EE1E32E24E9D22E96E0D8
:103AC000C92E80E1B82EAA24A39401E4902E16E515
:103AD000812EB2E57B2EA0E26A2EF9E45F2EE3E5AB
:103AE0004E2E70E5372E0E94761C8033B1F1813363
:103AF00009F441C0803409F479C0813409F48CC0E0
:103B0000823471F1853409F47BC0803531F182351E
:103B100021F1813511F1853509F48DC0863509F41F
:103B20009DC0843609F4AEC0843709F41BC18537C3
:103B300009F485C1863709F47AC0809103018F5F4B
:103B400080930301853079F6E0910401F09105013D
:103B500009950E94761C803351F60E94F61CC3CF53
:103B600093E18091C00087FFFCCF8091C60099232C
:103B7000A1F39150F6CF0E94761C8032F1F680912D
:103B8000C00085FFFCCFF092C6008091C00085FF89
:103B9000FCCF9092C6008091C00085FFFCCF809240
:103BA000C6008091C00085FFFCCF7092C600809156
:103BB000C00085FFFCCF6092C6008091C00085FFE9
:103BC000FCCF5092C6008091C00085FFFCCF409290
:103BD000C6008091C00085FFFCCF3092C600809166
:103BE000C00085FFFCCFB092C6007DCF0E94761C3E
:103BF000863808F4B2CF0E94761C0E94F61C73CF60
:103C000094E08091C00087FFFCCF8091C60099238B
:103C100009F4A3CF9150F5CF0E94761C8038D1F0E3
:103C2000813861F1823809F499C0883979F080E0EF
:103C30000E94CA1C58CF0E94761C809306010E94E5
:103C4000761C809307010E94F61C4DCF83E00E94F2
:103C5000CA1C49CF82E00E94CA1C45CF0E94761C34
:103C6000803309F486C192E08091C00087FFFCCFC9
:103C70008091C6009923D9F29150F6CF81E00E943D
:103C8000CA1C31CF0E94761C809309020E94761CC8
:103C90008093080280910C028E7F80930C020E9418
:103CA000761C853429F480910C02816080930C028B
:103CB0008091080290910902892B89F000E010E0C0
:103CC0000E94761CF801E85FFE4F80830F5F1F4F54
:103CD00080910802909109020817190788F30E9441
:103CE000761C803209F029CF80910C0280FFD1C070
:103CF0004091060150910701440F551F5093070151
:103D000040930601A0910802B09109021097C9F0F2
:103D1000E8E0F1E09A01BD016E0F7F1FF999FECF37
:103D200032BD21BD819180BDFA9AF99A2F5F3F4F34
:103D3000E617F70799F74A0F5B1F50930701409367
:103D400006018091C00085FFFCCFF092C6008091F3
:103D5000C00085FFFCCFB092C600C5CE80E10E94B6
:103D6000CA1CC1CE0E94761C809309020E94761C58
:103D7000809308028091060190910701880F991F96
:103D800090930701809306010E94761C853409F404
:103D90007AC080910C028E7F80930C020E94761C68
:103DA000803209F0A0CE8091C00085FFFCCFF09258
:103DB000C600A0910802B09109021097B9F1809154
:103DC0000C02182F1170082F0270E0910601F0917B
:103DD00007019F012F5F3F4FB90140E050E01123E1
:103DE000B1F4002339F494918091C00085FFFCCF99
:103DF0009093C6004F5F5F4FCB010196F9014A17C0
:103E00005B0780F4BC012F5F3F4F112351F3F999F9
:103E1000FECFF2BDE1BDF89A90B58091C00085FF5C
:103E2000FCCFE6CF70930701609306018091C0003C
:103E300085FDD9CE8091C00085FFF8CFD4CE0E94F9
:103E4000761C803209F079CE8091C00085FFFCCFCE
:103E5000F092C6008091C00085FFFCCFE092C600C2
:103E60008091C00085FFFCCFD092C6008091C00039
:103E700085FFFCCFC092C6008091C00085FFFCCFBB
:103E8000B092C60030CE80910C02816080930C020B
:103E900085CF809107018823880F880B8A21809322
:103EA0000B028091060190910701880F991F909352
:103EB0000701809306018091080280FF09C080916C
:103EC00008029091090201969093090280930802DA
:103ED000F894F999FECF1127E0910601F0910701BE
:103EE000C8E0D1E08091080290910902103091F46D
:103EF0000091570001700130D9F303E0009357009F
:103F0000E8950091570001700130D9F301E1009369
:103F10005700E89509901990009157000170013001
:103F2000D9F301E000935700E8951395103498F009
:103F300011270091570001700130D9F305E000937B
:103F40005700E8950091570001700130D9F301E165
:103F500000935700E8953296029709F0C7CF1030CA
:103F600011F00296E5CF11248091C00085FFE9CEC3
:103F7000ECCE0E94761C0E94761C182F0E94761CA4
:103F8000112351F0113021F086E00E94CA1CABCD04
:103F900084E90E94CA1CA7CD8EE10E94CA1CA3CD51
:043FA000F894FFCFC3
:023FA40080009B
:0400000300003800C1
:00000001FF